{
  "contractName": "Vouchers",
  "abi": [
    {
      "constant": true,
      "inputs": [
        {
          "name": "",
          "type": "uint256"
        }
      ],
      "name": "usedVoucherList",
      "outputs": [
        {
          "name": "id",
          "type": "uint256"
        },
        {
          "name": "voucherHeading",
          "type": "string"
        },
        {
          "name": "voucherContent",
          "type": "string"
        },
        {
          "name": "totalVoucherCount",
          "type": "uint256"
        },
        {
          "name": "cost",
          "type": "uint256"
        },
        {
          "name": "voucherImgUrl",
          "type": "string"
        },
        {
          "name": "voucherDisable",
          "type": "bool"
        }
      ],
      "payable": false,
      "stateMutability": "view",
      "type": "function"
    },
    {
      "constant": true,
      "inputs": [],
      "name": "usedVoucherCount",
      "outputs": [
        {
          "name": "",
          "type": "uint256"
        }
      ],
      "payable": false,
      "stateMutability": "view",
      "type": "function"
    },
    {
      "constant": true,
      "inputs": [],
      "name": "voucherCount",
      "outputs": [
        {
          "name": "",
          "type": "uint256"
        }
      ],
      "payable": false,
      "stateMutability": "view",
      "type": "function"
    },
    {
      "constant": true,
      "inputs": [],
      "name": "purchasedVoucherCount",
      "outputs": [
        {
          "name": "",
          "type": "uint256"
        }
      ],
      "payable": false,
      "stateMutability": "view",
      "type": "function"
    },
    {
      "constant": true,
      "inputs": [],
      "name": "activatedVoucherCount",
      "outputs": [
        {
          "name": "",
          "type": "uint256"
        }
      ],
      "payable": false,
      "stateMutability": "view",
      "type": "function"
    },
    {
      "constant": true,
      "inputs": [
        {
          "name": "",
          "type": "uint256"
        }
      ],
      "name": "voucherList",
      "outputs": [
        {
          "name": "id",
          "type": "uint256"
        },
        {
          "name": "voucherHeading",
          "type": "string"
        },
        {
          "name": "voucherContent",
          "type": "string"
        },
        {
          "name": "totalVoucherCount",
          "type": "uint256"
        },
        {
          "name": "cost",
          "type": "uint256"
        },
        {
          "name": "voucherImgUrl",
          "type": "string"
        },
        {
          "name": "voucherDisable",
          "type": "bool"
        }
      ],
      "payable": false,
      "stateMutability": "view",
      "type": "function"
    },
    {
      "constant": true,
      "inputs": [
        {
          "name": "",
          "type": "uint256"
        }
      ],
      "name": "activatedVoucherList",
      "outputs": [
        {
          "name": "id",
          "type": "uint256"
        },
        {
          "name": "voucherHeading",
          "type": "string"
        },
        {
          "name": "voucherContent",
          "type": "string"
        },
        {
          "name": "totalVoucherCount",
          "type": "uint256"
        },
        {
          "name": "cost",
          "type": "uint256"
        },
        {
          "name": "voucherImgUrl",
          "type": "string"
        },
        {
          "name": "voucherDisable",
          "type": "bool"
        }
      ],
      "payable": false,
      "stateMutability": "view",
      "type": "function"
    },
    {
      "constant": true,
      "inputs": [
        {
          "name": "",
          "type": "uint256"
        }
      ],
      "name": "purchasedVoucherList",
      "outputs": [
        {
          "name": "id",
          "type": "uint256"
        },
        {
          "name": "voucherHeading",
          "type": "string"
        },
        {
          "name": "voucherContent",
          "type": "string"
        },
        {
          "name": "totalVoucherCount",
          "type": "uint256"
        },
        {
          "name": "cost",
          "type": "uint256"
        },
        {
          "name": "voucherImgUrl",
          "type": "string"
        },
        {
          "name": "voucherDisable",
          "type": "bool"
        }
      ],
      "payable": false,
      "stateMutability": "view",
      "type": "function"
    },
    {
      "inputs": [],
      "payable": false,
      "stateMutability": "nonpayable",
      "type": "constructor"
    },
    {
      "anonymous": false,
      "inputs": [
        {
          "indexed": false,
          "name": "id",
          "type": "uint256"
        },
        {
          "indexed": false,
          "name": "voucherHeading",
          "type": "string"
        },
        {
          "indexed": false,
          "name": "voucherContent",
          "type": "string"
        },
        {
          "indexed": false,
          "name": "totalVoucherCount",
          "type": "uint256"
        },
        {
          "indexed": false,
          "name": "cost",
          "type": "uint256"
        },
        {
          "indexed": false,
          "name": "voucherImgUrl",
          "type": "string"
        },
        {
          "indexed": false,
          "name": "voucherDisable",
          "type": "bool"
        }
      ],
      "name": "VoucherCreated",
      "type": "event"
    },
    {
      "anonymous": false,
      "inputs": [
        {
          "indexed": false,
          "name": "id",
          "type": "uint256"
        },
        {
          "indexed": false,
          "name": "totalVoucherCount",
          "type": "uint256"
        }
      ],
      "name": "voucherPurchased",
      "type": "event"
    },
    {
      "anonymous": false,
      "inputs": [
        {
          "indexed": false,
          "name": "id",
          "type": "uint256"
        },
        {
          "indexed": false,
          "name": "voucherDisable",
          "type": "bool"
        }
      ],
      "name": "activatedVoucher",
      "type": "event"
    },
    {
      "anonymous": false,
      "inputs": [
        {
          "indexed": false,
          "name": "id",
          "type": "uint256"
        },
        {
          "indexed": false,
          "name": "voucherDisable",
          "type": "bool"
        }
      ],
      "name": "markedActivatedVoucher",
      "type": "event"
    },
    {
      "constant": false,
      "inputs": [
        {
          "name": "_vouHead",
          "type": "string"
        },
        {
          "name": "_vouCont",
          "type": "string"
        },
        {
          "name": "_totVouCount",
          "type": "uint256"
        },
        {
          "name": "_cost",
          "type": "uint256"
        },
        {
          "name": "_voucherImgUrl",
          "type": "string"
        }
      ],
      "name": "createVoucher",
      "outputs": [],
      "payable": false,
      "stateMutability": "nonpayable",
      "type": "function"
    },
    {
      "constant": false,
      "inputs": [
        {
          "name": "_id",
          "type": "uint256"
        }
      ],
      "name": "voucherPurchase",
      "outputs": [],
      "payable": false,
      "stateMutability": "nonpayable",
      "type": "function"
    },
    {
      "constant": false,
      "inputs": [
        {
          "name": "_id",
          "type": "uint256"
        }
      ],
      "name": "activateVoucher",
      "outputs": [],
      "payable": false,
      "stateMutability": "nonpayable",
      "type": "function"
    },
    {
      "constant": false,
      "inputs": [
        {
          "name": "_id",
          "type": "uint256"
        }
      ],
      "name": "markActivatedVoucher",
      "outputs": [],
      "payable": false,
      "stateMutability": "nonpayable",
      "type": "function"
    }
  ],
  "bytecode": "0x6080604052600080556000600155600060025560006003553480156200002457600080fd5b506200010c6040805190810160405280601681526020017f57656c636f6d6520746f20736d616c6c636861696e7300000000000000000000815250606060405190810160405280603581526020017f57656c636f6d65206769667420666f722065766572796f6e652e2e2e2035252081526020017f646973636f756e74206f6e20616c6c2073686f707300000000000000000000008152506104b060026040805190810160405280600581526020017f362e706e6700000000000000000000000000000000000000000000000000000081525062000112640100000000026401000000009004565b62000435565b6000805460019081018083556040805160e08101825282815260208082018b81528284018b9052606083018a90526080830189905260a0830188905260c083018790529386526004815291909420845181559151805192936200017e9390850192919091019062000390565b50604082015180516200019c91600284019160209091019062000390565b50606082015160038201556080820151600482015560a08201518051620001ce91600584019160209091019062000390565b5060c08201518160060160006101000a81548160ff0219169083151502179055509050507f5dbbe48c8e90eb9ff250db3f7077b5b5d0d009f040f10b4f8d93d28ef80de3ea60005486868686866000604051808881526020018060200180602001878152602001868152602001806020018515151515815260200184810384528a818151815260200191508051906020019080838360005b838110156200028057818101518382015260200162000266565b50505050905090810190601f168015620002ae5780820380516001836020036101000a031916815260200191505b5084810383528951815289516020918201918b019080838360005b83811015620002e3578181015183820152602001620002c9565b50505050905090810190601f168015620003115780820380516001836020036101000a031916815260200191505b50848103825286518152865160209182019188019080838360005b83811015620003465781810151838201526020016200032c565b50505050905090810190601f168015620003745780820380516001836020036101000a031916815260200191505b509a505050505050505050505060405180910390a15050505050565b828054600181600116156101000203166002900490600052602060002090601f016020900481019282601f10620003d357805160ff191683800117855562000403565b8280016001018555821562000403579182015b8281111562000403578251825591602001919060010190620003e6565b506200041192915062000415565b5090565b6200043291905b808211156200041157600081556001016200041c565b90565b611bcb80620004456000396000f3fe6080604052600436106100b95763ffffffff7c0100000000000000000000000000000000000000000000000000000000600035041663058fa9f981146100be5780630d802e391461024c578063312c0612146102735780633dfe803c1461028857806350fdb7c91461029d5780635965e53d146102c957806386c1ae1e146102de57806388c16d2a14610308578063b4d5b165146104d5578063b9f479ba146104ff578063d7e43e5d14610529578063db39c7c414610553575b600080fd5b3480156100ca57600080fd5b506100e8600480360360208110156100e157600080fd5b503561057d565b604051808881526020018060200180602001878152602001868152602001806020018515151515815260200184810384528a818151815260200191508051906020019080838360005b83811015610149578181015183820152602001610131565b50505050905090810190601f1680156101765780820380516001836020036101000a031916815260200191505b5084810383528951815289516020918201918b019080838360005b838110156101a9578181015183820152602001610191565b50505050905090810190601f1680156101d65780820380516001836020036101000a031916815260200191505b50848103825286518152865160209182019188019080838360005b838110156102095781810151838201526020016101f1565b50505050905090810190601f1680156102365780820380516001836020036101000a031916815260200191505b509a505050505050505050505060405180910390f35b34801561025857600080fd5b50610261610769565b60408051918252519081900360200190f35b34801561027f57600080fd5b5061026161076f565b34801561029457600080fd5b50610261610775565b3480156102a957600080fd5b506102c7600480360360208110156102c057600080fd5b503561077b565b005b3480156102d557600080fd5b50610261610b30565b3480156102ea57600080fd5b506100e86004803603602081101561030157600080fd5b5035610b36565b34801561031457600080fd5b506102c7600480360360a081101561032b57600080fd5b81019060208101813564010000000081111561034657600080fd5b82018360208201111561035857600080fd5b8035906020019184600183028401116401000000008311171561037a57600080fd5b91908080601f01602080910402602001604051908101604052809392919081815260200183838082843760009201919091525092959493602081019350359150506401000000008111156103cd57600080fd5b8201836020820111156103df57600080fd5b8035906020019184600183028401116401000000008311171561040157600080fd5b91908080601f016020809104026020016040519081016040528093929190818152602001838380828437600092019190915250929584359560208601359591945092506060810191506040013564010000000081111561046057600080fd5b82018360208201111561047257600080fd5b8035906020019184600183028401116401000000008311171561049457600080fd5b91908080601f016020809104026020016040519081016040528093929190818152602001838380828437600092019190915250929550610ba8945050505050565b3480156104e157600080fd5b506102c7600480360360208110156104f857600080fd5b5035610e17565b34801561050b57600080fd5b506102c76004803603602081101561052257600080fd5b50356113fc565b34801561053557600080fd5b506100e86004803603602081101561054c57600080fd5b50356119e0565b34801561055f57600080fd5b506100e86004803603602081101561057657600080fd5b5035611a52565b6007602090815260009182526040918290208054600180830180548651600293821615610100026000190190911692909204601f81018690048602830186019096528582529194929390929083018282801561061a5780601f106105ef5761010080835404028352916020019161061a565b820191906000526020600020905b8154815290600101906020018083116105fd57829003601f168201915b50505060028085018054604080516020601f60001961010060018716150201909416959095049283018590048502810185019091528181529596959450909250908301828280156106ac5780601f10610681576101008083540402835291602001916106ac565b820191906000526020600020905b81548152906001019060200180831161068f57829003601f168201915b505050505090806003015490806004015490806005018054600181600116156101000203166002900480601f0160208091040260200160405190810160405280929190818152602001828054600181600116156101000203166002900480156107565780601f1061072b57610100808354040283529160200191610756565b820191906000526020600020905b81548152906001019060200180831161073957829003601f168201915b5050506006909301549192505060ff1687565b60035481565b60005481565b60015481565b610783611ac4565b6004600083815260200190815260200160002060e0604051908101604052908160008201548152602001600182018054600181600116156101000203166002900480601f0160208091040260200160405190810160405280929190818152602001828054600181600116156101000203166002900480156108455780601f1061081a57610100808354040283529160200191610845565b820191906000526020600020905b81548152906001019060200180831161082857829003601f168201915b5050509183525050600282810180546040805160206001841615610100026000190190931694909404601f810183900483028501830190915280845293810193908301828280156108d75780601f106108ac576101008083540402835291602001916108d7565b820191906000526020600020905b8154815290600101906020018083116108ba57829003601f168201915b505050505081526020016003820154815260200160048201548152602001600582018054600181600116156101000203166002900480601f01602080910402602001604051908101604052809291908181526020018280546001816001161561010002031660029004801561098d5780601f106109625761010080835404028352916020019161098d565b820191906000526020600020905b81548152906001019060200180831161097057829003601f168201915b50505091835250506006919091015460ff16151560209182015260018054810181556060830180516000190190526000858152600483526040902083518155838301518051949550859491936109e893850192910190611b04565b5060408201518051610a04916002840191602090910190611b04565b50606082015160038201556080820151600482015560a08201518051610a34916005840191602090910190611b04565b5060c091909101516006909101805460ff19169115159190911790556001805480835260009081526005602090815260409091208351815581840151805185949293610a84938501920190611b04565b5060408201518051610aa0916002840191602090910190611b04565b50606082015160038201556080820151600482015560a08201518051610ad0916005840191602090910190611b04565b5060c091909101516006909101805460ff1916911515919091179055606081015160408051848152602081019290925280517f6f7257618f8f534da1a6ab91cc4c2b81f8ba5b7c8dea1f601b0fecbf279ca6779281900390910190a15050565b60025481565b6004602090815260009182526040918290208054600180830180548651600293821615610100026000190190911692909204601f81018690048602830186019096528582529194929390929083018282801561061a5780601f106105ef5761010080835404028352916020019161061a565b6000805460019081018083556040805160e08101825282815260208082018b81528284018b9052606083018a90526080830189905260a0830188905260c08301879052938652600481529190942084518155915180519293610c1293908501929190910190611b04565b5060408201518051610c2e916002840191602090910190611b04565b50606082015160038201556080820151600482015560a08201518051610c5e916005840191602090910190611b04565b5060c08201518160060160006101000a81548160ff0219169083151502179055509050507f5dbbe48c8e90eb9ff250db3f7077b5b5d0d009f040f10b4f8d93d28ef80de3ea60005486868686866000604051808881526020018060200180602001878152602001868152602001806020018515151515815260200184810384528a818151815260200191508051906020019080838360005b83811015610d0e578181015183820152602001610cf6565b50505050905090810190601f168015610d3b5780820380516001836020036101000a031916815260200191505b5084810383528951815289516020918201918b019080838360005b83811015610d6e578181015183820152602001610d56565b50505050905090810190601f168015610d9b5780820380516001836020036101000a031916815260200191505b50848103825286518152865160209182019188019080838360005b83811015610dce578181015183820152602001610db6565b50505050905090810190601f168015610dfb5780820380516001836020036101000a031916815260200191505b509a505050505050505050505060405180910390a15050505050565b610e1f611ac4565b6006600083815260200190815260200160002060e0604051908101604052908160008201548152602001600182018054600181600116156101000203166002900480601f016020809104026020016040519081016040528092919081815260200182805460018160011615610100020316600290048015610ee15780601f10610eb657610100808354040283529160200191610ee1565b820191906000526020600020905b815481529060010190602001808311610ec457829003601f168201915b5050509183525050600282810180546040805160206001841615610100026000190190931694909404601f81018390048302850183019091528084529381019390830182828015610f735780601f10610f4857610100808354040283529160200191610f73565b820191906000526020600020905b815481529060010190602001808311610f5657829003601f168201915b505050505081526020016003820154815260200160048201548152602001600582018054600181600116156101000203166002900480601f0160208091040260200160405190810160405280929190818152602001828054600181600116156101000203166002900480156110295780601f10610ffe57610100808354040283529160200191611029565b820191906000526020600020905b81548152906001019060200180831161100c57829003601f168201915b50505091835250506006919091015460ff161515602091820152600380546001908101918290558184526000918252600783526040909120835181558383015180519495508594919361108193850192910190611b04565b506040820151805161109d916002840191602090910190611b04565b50606082015160038201556080820151600482015560a082015180516110cd916005840191602090910190611b04565b5060c091909101516006909101805460ff1916911515919091179055815b6002548110156113ad576110fd611ac4565b6001828101600090815260066020908152604091829020825160e0810184528154815281850180548551600297821615610100026000190190911696909604601f810185900485028701850190955284865290949193858401938301828280156111a85780601f1061117d576101008083540402835291602001916111a8565b820191906000526020600020905b81548152906001019060200180831161118b57829003601f168201915b5050509183525050600282810180546040805160206001841615610100026000190190931694909404601f8101839004830285018301909152808452938101939083018282801561123a5780601f1061120f5761010080835404028352916020019161123a565b820191906000526020600020905b81548152906001019060200180831161121d57829003601f168201915b505050505081526020016003820154815260200160048201548152602001600582018054600181600116156101000203166002900480601f0160208091040260200160405190810160405280929190818152602001828054600181600116156101000203166002900480156112f05780601f106112c5576101008083540402835291602001916112f0565b820191906000526020600020905b8154815290600101906020018083116112d357829003601f168201915b505050918352505060069182015460ff16151560209182015284835260008581529181526040909120825181558282015180519394508493919261133c92600185019290910190611b04565b5060408201518051611358916002840191602090910190611b04565b50606082015160038201556080820151600482015560a08201518051611388916005840191602090910190611b04565b5060c091909101516006909101805460ff1916911515919091179055506001016110eb565b506002805460001901905560c081015160408051848152911515602083015280517f2611b44780faee47346c0be6a6774b0e897b51dd7610a649853ab7e9bb6c2de89281900390910190a15050565b611404611ac4565b6005600083815260200190815260200160002060e0604051908101604052908160008201548152602001600182018054600181600116156101000203166002900480601f0160208091040260200160405190810160405280929190818152602001828054600181600116156101000203166002900480156114c65780601f1061149b576101008083540402835291602001916114c6565b820191906000526020600020905b8154815290600101906020018083116114a957829003601f168201915b5050509183525050600282810180546040805160206001841615610100026000190190931694909404601f810183900483028501830190915280845293810193908301828280156115585780601f1061152d57610100808354040283529160200191611558565b820191906000526020600020905b81548152906001019060200180831161153b57829003601f168201915b505050505081526020016003820154815260200160048201548152602001600582018054600181600116156101000203166002900480601f01602080910402602001604051908101604052809291908181526020018280546001816001161561010002031660029004801561160e5780601f106115e35761010080835404028352916020019161160e565b820191906000526020600020905b8154815290600101906020018083116115f157829003601f168201915b505050918352505060069182015460ff1615156020918201526002805460019081019182905581855260009182529282526040902083518155838201518051949550859491936116649390850192910190611b04565b5060408201518051611680916002840191602090910190611b04565b50606082015160038201556080820151600482015560a082015180516116b0916005840191602090910190611b04565b5060c091909101516006909101805460ff1916911515919091179055815b600154811015611991576116e0611ac4565b6001828101600090815260056020908152604091829020825160e0810184528154815281850180548551600297821615610100026000190190911696909604601f8101859004850287018501909552848652909491938584019383018282801561178b5780601f106117605761010080835404028352916020019161178b565b820191906000526020600020905b81548152906001019060200180831161176e57829003601f168201915b5050509183525050600282810180546040805160206001841615610100026000190190931694909404601f8101839004830285018301909152808452938101939083018282801561181d5780601f106117f25761010080835404028352916020019161181d565b820191906000526020600020905b81548152906001019060200180831161180057829003601f168201915b505050505081526020016003820154815260200160048201548152602001600582018054600181600116156101000203166002900480601f0160208091040260200160405190810160405280929190818152602001828054600181600116156101000203166002900480156118d35780601f106118a8576101008083540402835291602001916118d3565b820191906000526020600020905b8154815290600101906020018083116118b657829003601f168201915b50505091835250506006919091015460ff16151560209182015283825260008481526005825260409020825181558282015180519394508493919261192092600185019290910190611b04565b506040820151805161193c916002840191602090910190611b04565b50606082015160038201556080820151600482015560a0820151805161196c916005840191602090910190611b04565b5060c091909101516006909101805460ff1916911515919091179055506001016116ce565b506001805460001901905560c081015160408051848152911515602083015280517f0b9ae388381e63eff05113173e6a7403956cb181c4f79e7775a7b00042283fe69281900390910190a15050565b6006602090815260009182526040918290208054600180830180548651600293821615610100026000190190911692909204601f81018690048602830186019096528582529194929390929083018282801561061a5780601f106105ef5761010080835404028352916020019161061a565b6005602090815260009182526040918290208054600180830180548651600293821615610100026000190190911692909204601f81018690048602830186019096528582529194929390929083018282801561061a5780601f106105ef5761010080835404028352916020019161061a565b60e0604051908101604052806000815260200160608152602001606081526020016000815260200160008152602001606081526020016000151581525090565b828054600181600116156101000203166002900490600052602060002090601f016020900481019282601f10611b4557805160ff1916838001178555611b72565b82800160010185558215611b72579182015b82811115611b72578251825591602001919060010190611b57565b50611b7e929150611b82565b5090565b611b9c91905b80821115611b7e5760008155600101611b88565b9056fea165627a7a72305820ab2868e2ee265d57ed0de13b5e200307c0d51d42b1b1a2374bfc449dd3a0c9c90029",
  "source": "pragma solidity ^0.5.0;\r\n\r\ncontract Vouchers{\r\n\r\n    uint public voucherCount = 0;\r\n    uint public purchasedVoucherCount = 0;\r\n    uint public activatedVoucherCount = 0;\r\n    uint public usedVoucherCount = 0;\r\n\r\n    struct Voucher {\r\n        uint id;\r\n        string voucherHeading;\r\n        string voucherContent;\r\n        uint totalVoucherCount;\r\n        uint cost;\r\n        string voucherImgUrl;\r\n        bool voucherDisable;\r\n    }\r\n\r\n    constructor() public{\r\n        createVoucher(\"Welcome to smallchains\",\"Welcome gift for everyone... 5% discount on all shops\",1200,2,\"6.png\");\r\n    }\r\n\r\n    mapping(uint => Voucher) public voucherList; //voucher list that holds original vouchers in the system\r\n    mapping(uint => Voucher) public purchasedVoucherList; //purchased voucher list\r\n    mapping(uint => Voucher) public activatedVoucherList; //user activated voucher list waiting for shopowner confirmation\r\n    mapping(uint => Voucher) public usedVoucherList;    //vouchers that shop owners marked as valid and redeemed\r\n\r\n    event VoucherCreated(\r\n        uint id,\r\n        string voucherHeading,\r\n        string voucherContent,\r\n        uint totalVoucherCount,\r\n        uint cost,\r\n        string voucherImgUrl,\r\n        bool voucherDisable\r\n    );\r\n\r\n    event voucherPurchased(\r\n        uint id,\r\n        uint totalVoucherCount\r\n    );\r\n\r\n    event activatedVoucher(\r\n        uint id,\r\n        bool voucherDisable\r\n    );\r\n\r\n    event markedActivatedVoucher(\r\n        uint id,\r\n        bool voucherDisable\r\n    );\r\n\r\n    function createVoucher(string memory _vouHead, string memory _vouCont, uint _totVouCount, uint _cost,string memory _voucherImgUrl) public {\r\n        voucherCount++;\r\n        voucherList[voucherCount] = Voucher(voucherCount,_vouHead,_vouCont,_totVouCount,_cost,_voucherImgUrl,false);\r\n        emit VoucherCreated(voucherCount,_vouHead,_vouCont,_totVouCount,_cost,_voucherImgUrl,false);\r\n    }\r\n\r\n    function voucherPurchase(uint _id) public {\r\n        Voucher memory _voucher = voucherList[_id];\r\n        purchasedVoucherCount++;\r\n        _voucher.totalVoucherCount = _voucher.totalVoucherCount - 1;\r\n        voucherList[_id] = _voucher;    //update existing voucherList with new total voucher count\r\n        _voucher.id = purchasedVoucherCount;    //vocher info transfering to new list and assigning new id\r\n        purchasedVoucherList[purchasedVoucherCount] = _voucher;\r\n        emit voucherPurchased(_id,_voucher.totalVoucherCount);\r\n    }\r\n\r\n    function activateVoucher(uint _id) public {\r\n        Voucher memory _voucher = purchasedVoucherList[_id];\r\n        activatedVoucherCount++;\r\n        _voucher.id = activatedVoucherCount;\r\n        activatedVoucherList[activatedVoucherCount] = _voucher;\r\n\r\n        for (uint i = _id; i<purchasedVoucherCount; i++){\r\n            Voucher memory tempVoucher = purchasedVoucherList[i+1];\r\n            tempVoucher.id = i;\r\n            purchasedVoucherList[i] = tempVoucher;\r\n        }\r\n        purchasedVoucherCount--;\r\n        emit activatedVoucher(_id,_voucher.voucherDisable);\r\n    }\r\n\r\n    function markActivatedVoucher(uint _id) public {\r\n        Voucher memory _voucher = activatedVoucherList[_id];\r\n        usedVoucherCount++;\r\n        _voucher.id = usedVoucherCount;\r\n        usedVoucherList[usedVoucherCount] = _voucher;\r\n\r\n        for (uint i = _id; i<activatedVoucherCount; i++){\r\n            Voucher memory tempVoucher = activatedVoucherList[i+1];\r\n            tempVoucher.id = i;\r\n            activatedVoucherList[i] = tempVoucher;\r\n        }\r\n        activatedVoucherCount--;\r\n        emit markedActivatedVoucher(_id,_voucher.voucherDisable);\r\n    }\r\n}",
  "sourcePath": "D:/smallchains/contracts/Vouchers.sol",
  "compiler": {
    "name": "solc",
    "version": "0.5.0+commit.1d4f565a.Emscripten.clang"
  },
  "schemaVersion": "3.0.1",
  "updatedAt": "2019-06-20T00:42:18.613Z",
  "devdoc": {
    "methods": {}
  },
  "userdoc": {
    "methods": {}
  }
}