{
  "contractName": "Wallets",
  "abi": [
    {
      "constant": true,
      "inputs": [],
      "name": "walletCount",
      "outputs": [
        {
          "name": "",
          "type": "uint256"
        }
      ],
      "payable": false,
      "stateMutability": "view",
      "type": "function",
      "signature": "0x29b57c69"
    },
    {
      "constant": true,
      "inputs": [
        {
          "name": "",
          "type": "uint256"
        }
      ],
      "name": "walletsList",
      "outputs": [
        {
          "name": "id",
          "type": "uint256"
        },
        {
          "name": "coinCount",
          "type": "uint256"
        }
      ],
      "payable": false,
      "stateMutability": "view",
      "type": "function",
      "signature": "0x2c362463"
    },
    {
      "inputs": [],
      "payable": false,
      "stateMutability": "nonpayable",
      "type": "constructor",
      "signature": "constructor"
    },
    {
      "anonymous": false,
      "inputs": [
        {
          "indexed": false,
          "name": "id",
          "type": "uint256"
        },
        {
          "indexed": false,
          "name": "coinCount",
          "type": "uint256"
        }
      ],
      "name": "WalletCreated",
      "type": "event",
      "signature": "0x233ef44ac65e8fae0b26a9cfb88ae9b08baff1e5254458d1ee0eb89c1c88e968"
    },
    {
      "anonymous": false,
      "inputs": [
        {
          "indexed": false,
          "name": "id",
          "type": "uint256"
        },
        {
          "indexed": false,
          "name": "amount",
          "type": "uint256"
        }
      ],
      "name": "addCoins",
      "type": "event",
      "signature": "0x96de8af120696416cce45a84e210fc53f810618dc90b72494b777719d212190a"
    },
    {
      "anonymous": false,
      "inputs": [
        {
          "indexed": false,
          "name": "id",
          "type": "uint256"
        },
        {
          "indexed": false,
          "name": "amount",
          "type": "uint256"
        }
      ],
      "name": "deductCoins",
      "type": "event",
      "signature": "0xecccad81fc3c199bd682b7a52122b6f0351d91e2d00597680fcfd86a5aa973ca"
    },
    {
      "constant": false,
      "inputs": [],
      "name": "createWallet",
      "outputs": [],
      "payable": false,
      "stateMutability": "nonpayable",
      "type": "function",
      "signature": "0x11ebbf24"
    },
    {
      "constant": false,
      "inputs": [
        {
          "name": "amount",
          "type": "uint256"
        }
      ],
      "name": "addCoinsToWallet",
      "outputs": [],
      "payable": false,
      "stateMutability": "nonpayable",
      "type": "function",
      "signature": "0x8d51fa75"
    },
    {
      "constant": false,
      "inputs": [
        {
          "name": "amount",
          "type": "uint256"
        }
      ],
      "name": "deductCoinsFromWallet",
      "outputs": [
        {
          "name": "",
          "type": "bool"
        }
      ],
      "payable": false,
      "stateMutability": "nonpayable",
      "type": "function",
      "signature": "0x7156a23c"
    }
  ],
  "bytecode": "0x60806040526000805534801561001457600080fd5b5061039d806100246000396000f3fe60806040526004361061006c5763ffffffff7c010000000000000000000000000000000000000000000000000000000060003504166311ebbf24811461007157806329b57c69146100885780632c362463146100af5780637156a23c146100f25780638d51fa7514610130575b600080fd5b34801561007d57600080fd5b5061008661015a565b005b34801561009457600080fd5b5061009d6101cd565b60408051918252519081900360200190f35b3480156100bb57600080fd5b506100d9600480360360208110156100d257600080fd5b50356101d3565b6040805192835260208301919091528051918290030190f35b3480156100fe57600080fd5b5061011c6004803603602081101561011557600080fd5b50356101ec565b604080519115158252519081900360200190f35b34801561013c57600080fd5b506100866004803603602081101561015357600080fd5b50356102a7565b6000805460019081018083556040805180820182528281526105dc60208083019182529386528484528286209151825551930192909255825482519081529081019290925280517f233ef44ac65e8fae0b26a9cfb88ae9b08baff1e5254458d1ee0eb89c1c88e9689281900390910190a1565b60005481565b6001602081905260009182526040909120805491015482565b60006101f661035a565b506040805180820182527fcc69885fda6bcc1a4ace058b4a62bf5e179ea78fd58a1ccd71c22cc9b688792f805482527fcc69885fda6bcc1a4ace058b4a62bf5e179ea78fd58a1ccd71c22cc9b688793080548690036020848101918252600160008190528082528551909455905190915583519182528101859052825191927f96de8af120696416cce45a84e210fc53f810618dc90b72494b777719d212190a92918290030190a150600192915050565b6102af61035a565b506040805180820182527fcc69885fda6bcc1a4ace058b4a62bf5e179ea78fd58a1ccd71c22cc9b688792f805482527fcc69885fda6bcc1a4ace058b4a62bf5e179ea78fd58a1ccd71c22cc9b6887930805485016020848101918252600160008190528082528551909455905190915583519182528101849052825191927f96de8af120696416cce45a84e210fc53f810618dc90b72494b777719d212190a92918290030190a15050565b60408051808201909152600080825260208201529056fea165627a7a72305820ba2d6e6ed1f21c6ab78b09c5d05e49c82921520f0ec1761d147322143efe3db10029",
  "source": "pragma solidity ^0.5.0;\r\n\r\ncontract Wallets {\r\n\r\n    uint public walletCount = 0;\r\n\r\n    struct Wallet{\r\n        uint id;\r\n        uint coinCount;\r\n    }\r\n\r\n    constructor() public{\r\n        //createWallet();\r\n    }\r\n\r\n    mapping(uint => Wallet) public walletsList;\r\n\r\n    event WalletCreated(\r\n        uint id,\r\n        uint coinCount\r\n    );\r\n\r\n    event addCoins(\r\n        uint id,\r\n        uint amount\r\n    );\r\n\r\n    event deductCoins(\r\n        uint id,\r\n        uint amount\r\n    );\r\n\r\n    function createWallet() public {\r\n        walletCount++;\r\n        walletsList[walletCount] = Wallet(walletCount,1500);\r\n        emit WalletCreated(walletCount,0);\r\n    }\r\n\r\n    function addCoinsToWallet(uint amount) public {\r\n        Wallet memory _wallet = walletsList[1];\r\n        _wallet.coinCount = _wallet.coinCount+amount;\r\n        walletsList[1] = _wallet;\r\n        emit addCoins(1,amount);\r\n    }\r\n\r\n    function deductCoinsFromWallet(uint amount) public returns (bool) {\r\n        Wallet memory _wallet = walletsList[1];\r\n        _wallet.coinCount = _wallet.coinCount - amount;\r\n        walletsList[1] = _wallet;\r\n        emit addCoins(1,amount);\r\n        return true;\r\n    }\r\n}",
  "sourcePath": "D:/smallchains/contracts/Wallets.sol",
  "compiler": {
    "name": "solc",
    "version": "0.5.0+commit.1d4f565a.Emscripten.clang"
  },
  "schemaVersion": "3.0.1",
  "updatedAt": "2019-06-20T00:29:34.188Z",
  "devdoc": {
    "methods": {}
  },
  "userdoc": {
    "methods": {}
  }
}